{
  "_format": "hh-sol-artifact-1",
  "contractName": "Vault",
  "sourceName": "contracts/Vault.sol",
  "abi": [
    {
      "inputs": [
        {
          "internalType": "contract ERC20",
          "name": "underlying_",
          "type": "address"
        },
        {
          "internalType": "string",
          "name": "name_",
          "type": "string"
        },
        {
          "internalType": "string",
          "name": "symbol_",
          "type": "string"
        },
        {
          "internalType": "address",
          "name": "router_",
          "type": "address"
        }
      ],
      "stateMutability": "nonpayable",
      "type": "constructor"
    },
    {
      "anonymous": false,
      "inputs": [
        {
          "indexed": true,
          "internalType": "address",
          "name": "owner",
          "type": "address"
        },
        {
          "indexed": true,
          "internalType": "address",
          "name": "spender",
          "type": "address"
        },
        {
          "indexed": false,
          "internalType": "uint256",
          "name": "value",
          "type": "uint256"
        }
      ],
      "name": "Approval",
      "type": "event"
    },
    {
      "anonymous": false,
      "inputs": [
        {
          "indexed": true,
          "internalType": "address",
          "name": "caller",
          "type": "address"
        },
        {
          "indexed": true,
          "internalType": "address",
          "name": "owner",
          "type": "address"
        },
        {
          "indexed": false,
          "internalType": "uint256",
          "name": "assets",
          "type": "uint256"
        },
        {
          "indexed": false,
          "internalType": "uint256",
          "name": "shares",
          "type": "uint256"
        }
      ],
      "name": "Deposit",
      "type": "event"
    },
    {
      "anonymous": false,
      "inputs": [
        {
          "indexed": true,
          "internalType": "address",
          "name": "previousOwner",
          "type": "address"
        },
        {
          "indexed": true,
          "internalType": "address",
          "name": "newOwner",
          "type": "address"
        }
      ],
      "name": "OwnershipTransferred",
      "type": "event"
    },
    {
      "anonymous": false,
      "inputs": [
        {
          "indexed": true,
          "internalType": "address",
          "name": "from",
          "type": "address"
        },
        {
          "indexed": true,
          "internalType": "address",
          "name": "to",
          "type": "address"
        },
        {
          "indexed": false,
          "internalType": "uint256",
          "name": "value",
          "type": "uint256"
        }
      ],
      "name": "Transfer",
      "type": "event"
    },
    {
      "anonymous": false,
      "inputs": [
        {
          "indexed": true,
          "internalType": "address",
          "name": "caller",
          "type": "address"
        },
        {
          "indexed": true,
          "internalType": "address",
          "name": "receiver",
          "type": "address"
        },
        {
          "indexed": true,
          "internalType": "address",
          "name": "owner",
          "type": "address"
        },
        {
          "indexed": false,
          "internalType": "uint256",
          "name": "assets",
          "type": "uint256"
        },
        {
          "indexed": false,
          "internalType": "uint256",
          "name": "shares",
          "type": "uint256"
        }
      ],
      "name": "Withdraw",
      "type": "event"
    },
    {
      "inputs": [
        {
          "internalType": "address",
          "name": "owner",
          "type": "address"
        },
        {
          "internalType": "address",
          "name": "spender",
          "type": "address"
        }
      ],
      "name": "allowance",
      "outputs": [
        {
          "internalType": "uint256",
          "name": "",
          "type": "uint256"
        }
      ],
      "stateMutability": "view",
      "type": "function"
    },
    {
      "inputs": [
        {
          "internalType": "address",
          "name": "spender",
          "type": "address"
        },
        {
          "internalType": "uint256",
          "name": "amount",
          "type": "uint256"
        }
      ],
      "name": "approve",
      "outputs": [
        {
          "internalType": "bool",
          "name": "",
          "type": "bool"
        }
      ],
      "stateMutability": "nonpayable",
      "type": "function"
    },
    {
      "inputs": [],
      "name": "asset",
      "outputs": [
        {
          "internalType": "address",
          "name": "",
          "type": "address"
        }
      ],
      "stateMutability": "view",
      "type": "function"
    },
    {
      "inputs": [
        {
          "internalType": "address",
          "name": "account",
          "type": "address"
        }
      ],
      "name": "balanceOf",
      "outputs": [
        {
          "internalType": "uint256",
          "name": "",
          "type": "uint256"
        }
      ],
      "stateMutability": "view",
      "type": "function"
    },
    {
      "inputs": [
        {
          "internalType": "uint256",
          "name": "shares",
          "type": "uint256"
        }
      ],
      "name": "convertToAssets",
      "outputs": [
        {
          "internalType": "uint256",
          "name": "assets",
          "type": "uint256"
        }
      ],
      "stateMutability": "view",
      "type": "function"
    },
    {
      "inputs": [
        {
          "internalType": "uint256",
          "name": "assets",
          "type": "uint256"
        }
      ],
      "name": "convertToShares",
      "outputs": [
        {
          "internalType": "uint256",
          "name": "shares",
          "type": "uint256"
        }
      ],
      "stateMutability": "view",
      "type": "function"
    },
    {
      "inputs": [],
      "name": "decimals",
      "outputs": [
        {
          "internalType": "uint8",
          "name": "",
          "type": "uint8"
        }
      ],
      "stateMutability": "view",
      "type": "function"
    },
    {
      "inputs": [
        {
          "internalType": "address",
          "name": "spender",
          "type": "address"
        },
        {
          "internalType": "uint256",
          "name": "subtractedValue",
          "type": "uint256"
        }
      ],
      "name": "decreaseAllowance",
      "outputs": [
        {
          "internalType": "bool",
          "name": "",
          "type": "bool"
        }
      ],
      "stateMutability": "nonpayable",
      "type": "function"
    },
    {
      "inputs": [
        {
          "internalType": "uint256",
          "name": "assets",
          "type": "uint256"
        },
        {
          "internalType": "address",
          "name": "receiver",
          "type": "address"
        }
      ],
      "name": "deposit",
      "outputs": [
        {
          "internalType": "uint256",
          "name": "",
          "type": "uint256"
        }
      ],
      "stateMutability": "nonpayable",
      "type": "function"
    },
    {
      "inputs": [
        {
          "internalType": "address",
          "name": "spender",
          "type": "address"
        },
        {
          "internalType": "uint256",
          "name": "addedValue",
          "type": "uint256"
        }
      ],
      "name": "increaseAllowance",
      "outputs": [
        {
          "internalType": "bool",
          "name": "",
          "type": "bool"
        }
      ],
      "stateMutability": "nonpayable",
      "type": "function"
    },
    {
      "inputs": [
        {
          "internalType": "address",
          "name": "",
          "type": "address"
        }
      ],
      "name": "maxDeposit",
      "outputs": [
        {
          "internalType": "uint256",
          "name": "",
          "type": "uint256"
        }
      ],
      "stateMutability": "view",
      "type": "function"
    },
    {
      "inputs": [
        {
          "internalType": "address",
          "name": "",
          "type": "address"
        }
      ],
      "name": "maxMint",
      "outputs": [
        {
          "internalType": "uint256",
          "name": "",
          "type": "uint256"
        }
      ],
      "stateMutability": "view",
      "type": "function"
    },
    {
      "inputs": [
        {
          "internalType": "address",
          "name": "owner",
          "type": "address"
        }
      ],
      "name": "maxRedeem",
      "outputs": [
        {
          "internalType": "uint256",
          "name": "",
          "type": "uint256"
        }
      ],
      "stateMutability": "view",
      "type": "function"
    },
    {
      "inputs": [
        {
          "internalType": "address",
          "name": "owner",
          "type": "address"
        }
      ],
      "name": "maxWithdraw",
      "outputs": [
        {
          "internalType": "uint256",
          "name": "",
          "type": "uint256"
        }
      ],
      "stateMutability": "view",
      "type": "function"
    },
    {
      "inputs": [
        {
          "internalType": "uint256",
          "name": "shares",
          "type": "uint256"
        },
        {
          "internalType": "address",
          "name": "receiver",
          "type": "address"
        }
      ],
      "name": "mint",
      "outputs": [
        {
          "internalType": "uint256",
          "name": "",
          "type": "uint256"
        }
      ],
      "stateMutability": "nonpayable",
      "type": "function"
    },
    {
      "inputs": [],
      "name": "name",
      "outputs": [
        {
          "internalType": "string",
          "name": "",
          "type": "string"
        }
      ],
      "stateMutability": "view",
      "type": "function"
    },
    {
      "inputs": [],
      "name": "owner",
      "outputs": [
        {
          "internalType": "address",
          "name": "",
          "type": "address"
        }
      ],
      "stateMutability": "view",
      "type": "function"
    },
    {
      "inputs": [
        {
          "internalType": "uint256",
          "name": "assets",
          "type": "uint256"
        }
      ],
      "name": "previewDeposit",
      "outputs": [
        {
          "internalType": "uint256",
          "name": "",
          "type": "uint256"
        }
      ],
      "stateMutability": "view",
      "type": "function"
    },
    {
      "inputs": [
        {
          "internalType": "uint256",
          "name": "shares",
          "type": "uint256"
        }
      ],
      "name": "previewMint",
      "outputs": [
        {
          "internalType": "uint256",
          "name": "",
          "type": "uint256"
        }
      ],
      "stateMutability": "view",
      "type": "function"
    },
    {
      "inputs": [
        {
          "internalType": "uint256",
          "name": "shares",
          "type": "uint256"
        }
      ],
      "name": "previewRedeem",
      "outputs": [
        {
          "internalType": "uint256",
          "name": "",
          "type": "uint256"
        }
      ],
      "stateMutability": "view",
      "type": "function"
    },
    {
      "inputs": [
        {
          "internalType": "uint256",
          "name": "assets",
          "type": "uint256"
        }
      ],
      "name": "previewWithdraw",
      "outputs": [
        {
          "internalType": "uint256",
          "name": "",
          "type": "uint256"
        }
      ],
      "stateMutability": "view",
      "type": "function"
    },
    {
      "inputs": [
        {
          "internalType": "uint256",
          "name": "shares",
          "type": "uint256"
        },
        {
          "internalType": "address",
          "name": "receiver",
          "type": "address"
        },
        {
          "internalType": "address",
          "name": "owner",
          "type": "address"
        }
      ],
      "name": "redeem",
      "outputs": [
        {
          "internalType": "uint256",
          "name": "",
          "type": "uint256"
        }
      ],
      "stateMutability": "nonpayable",
      "type": "function"
    },
    {
      "inputs": [],
      "name": "renounceOwnership",
      "outputs": [],
      "stateMutability": "nonpayable",
      "type": "function"
    },
    {
      "inputs": [
        {
          "internalType": "address[]",
          "name": "path",
          "type": "address[]"
        },
        {
          "internalType": "uint256",
          "name": "_amountIn",
          "type": "uint256"
        },
        {
          "internalType": "uint256",
          "name": "_amountOutMin",
          "type": "uint256"
        },
        {
          "internalType": "address",
          "name": "_to",
          "type": "address"
        }
      ],
      "name": "swap",
      "outputs": [],
      "stateMutability": "nonpayable",
      "type": "function"
    },
    {
      "inputs": [
        {
          "internalType": "address",
          "name": "token",
          "type": "address"
        },
        {
          "internalType": "uint256",
          "name": "amountIn",
          "type": "uint256"
        },
        {
          "internalType": "uint256",
          "name": "amountOutMin",
          "type": "uint256"
        },
        {
          "internalType": "uint256",
          "name": "deadline",
          "type": "uint256"
        }
      ],
      "name": "swapTokensForETH",
      "outputs": [],
      "stateMutability": "nonpayable",
      "type": "function"
    },
    {
      "inputs": [],
      "name": "symbol",
      "outputs": [
        {
          "internalType": "string",
          "name": "",
          "type": "string"
        }
      ],
      "stateMutability": "view",
      "type": "function"
    },
    {
      "inputs": [],
      "name": "totalAssets",
      "outputs": [
        {
          "internalType": "uint256",
          "name": "",
          "type": "uint256"
        }
      ],
      "stateMutability": "view",
      "type": "function"
    },
    {
      "inputs": [],
      "name": "totalSupply",
      "outputs": [
        {
          "internalType": "uint256",
          "name": "",
          "type": "uint256"
        }
      ],
      "stateMutability": "view",
      "type": "function"
    },
    {
      "inputs": [
        {
          "internalType": "address",
          "name": "to",
          "type": "address"
        },
        {
          "internalType": "uint256",
          "name": "amount",
          "type": "uint256"
        }
      ],
      "name": "transfer",
      "outputs": [
        {
          "internalType": "bool",
          "name": "",
          "type": "bool"
        }
      ],
      "stateMutability": "nonpayable",
      "type": "function"
    },
    {
      "inputs": [
        {
          "internalType": "address",
          "name": "from",
          "type": "address"
        },
        {
          "internalType": "address",
          "name": "to",
          "type": "address"
        },
        {
          "internalType": "uint256",
          "name": "amount",
          "type": "uint256"
        }
      ],
      "name": "transferFrom",
      "outputs": [
        {
          "internalType": "bool",
          "name": "",
          "type": "bool"
        }
      ],
      "stateMutability": "nonpayable",
      "type": "function"
    },
    {
      "inputs": [
        {
          "internalType": "address",
          "name": "newOwner",
          "type": "address"
        }
      ],
      "name": "transferOwnership",
      "outputs": [],
      "stateMutability": "nonpayable",
      "type": "function"
    },
    {
      "inputs": [
        {
          "internalType": "uint256",
          "name": "assets",
          "type": "uint256"
        },
        {
          "internalType": "address",
          "name": "receiver",
          "type": "address"
        },
        {
          "internalType": "address",
          "name": "owner",
          "type": "address"
        }
      ],
      "name": "withdraw",
      "outputs": [
        {
          "internalType": "uint256",
          "name": "",
          "type": "uint256"
        }
      ],
      "stateMutability": "nonpayable",
      "type": "function"
    }
  ],
  "bytecode": "0x60a06040523480156200001157600080fd5b50604051620043783803806200437883398181016040528101906200003791906200040b565b83838381600390816200004b919062000706565b5080600490816200005d919062000706565b5050508073ffffffffffffffffffffffffffffffffffffffff1660808173ffffffffffffffffffffffffffffffffffffffff168152505050620000b5620000a96200010060201b60201c565b6200010860201b60201c565b80600660006101000a81548173ffffffffffffffffffffffffffffffffffffffff021916908373ffffffffffffffffffffffffffffffffffffffff16021790555050505050620007ed565b600033905090565b6000600560009054906101000a900473ffffffffffffffffffffffffffffffffffffffff16905081600560006101000a81548173ffffffffffffffffffffffffffffffffffffffff021916908373ffffffffffffffffffffffffffffffffffffffff1602179055508173ffffffffffffffffffffffffffffffffffffffff168173ffffffffffffffffffffffffffffffffffffffff167f8be0079c531659141344cd1fd0a4f28419497f9722a3daafe3b4186f6b6457e060405160405180910390a35050565b6000604051905090565b600080fd5b600080fd5b600073ffffffffffffffffffffffffffffffffffffffff82169050919050565b60006200020f82620001e2565b9050919050565b6000620002238262000202565b9050919050565b620002358162000216565b81146200024157600080fd5b50565b60008151905062000255816200022a565b92915050565b600080fd5b600080fd5b6000601f19601f8301169050919050565b7f4e487b7100000000000000000000000000000000000000000000000000000000600052604160045260246000fd5b620002b08262000265565b810181811067ffffffffffffffff82111715620002d257620002d162000276565b5b80604052505050565b6000620002e7620001ce565b9050620002f58282620002a5565b919050565b600067ffffffffffffffff82111562000318576200031762000276565b5b620003238262000265565b9050602081019050919050565b60005b838110156200035057808201518184015260208101905062000333565b60008484015250505050565b6000620003736200036d84620002fa565b620002db565b90508281526020810184848401111562000392576200039162000260565b5b6200039f84828562000330565b509392505050565b600082601f830112620003bf57620003be6200025b565b5b8151620003d18482602086016200035c565b91505092915050565b620003e58162000202565b8114620003f157600080fd5b50565b6000815190506200040581620003da565b92915050565b60008060008060808587031215620004285762000427620001d8565b5b6000620004388782880162000244565b945050602085015167ffffffffffffffff8111156200045c576200045b620001dd565b5b6200046a87828801620003a7565b935050604085015167ffffffffffffffff8111156200048e576200048d620001dd565b5b6200049c87828801620003a7565b9250506060620004af87828801620003f4565b91505092959194509250565b600081519050919050565b7f4e487b7100000000000000000000000000000000000000000000000000000000600052602260045260246000fd5b600060028204905060018216806200050e57607f821691505b602082108103620005245762000523620004c6565b5b50919050565b60008190508160005260206000209050919050565b60006020601f8301049050919050565b600082821b905092915050565b6000600883026200058e7fffffffffffffffffffffffffffffffffffffffffffffffffffffffffffffffff826200054f565b6200059a86836200054f565b95508019841693508086168417925050509392505050565b6000819050919050565b6000819050919050565b6000620005e7620005e1620005db84620005b2565b620005bc565b620005b2565b9050919050565b6000819050919050565b6200060383620005c6565b6200061b6200061282620005ee565b8484546200055c565b825550505050565b600090565b6200063262000623565b6200063f818484620005f8565b505050565b5b8181101562000667576200065b60008262000628565b60018101905062000645565b5050565b601f821115620006b65762000680816200052a565b6200068b846200053f565b810160208510156200069b578190505b620006b3620006aa856200053f565b83018262000644565b50505b505050565b600082821c905092915050565b6000620006db60001984600802620006bb565b1980831691505092915050565b6000620006f68383620006c8565b9150826002028217905092915050565b6200071182620004bb565b67ffffffffffffffff8111156200072d576200072c62000276565b5b620007398254620004f5565b620007468282856200066b565b600060209050601f8311600181146200077e576000841562000769578287015190505b620007758582620006e8565b865550620007e5565b601f1984166200078e866200052a565b60005b82811015620007b85784890151825560018201915060208501945060208101905062000791565b86831015620007d85784890151620007d4601f891682620006c8565b8355505b6001600288020188555050505b505050505050565b608051613b4c6200082c60003960008181610719015281816108d90152818161128d01528181611583015281816119e90152611b9b0152613b4c6000f3fe608060405234801561001057600080fd5b50600436106101f05760003560e01c80638da5cb5b1161010f578063c63d75b6116100a2578063dd62ed3e11610071578063dd62ed3e1461067d578063ef8b30f7146106ad578063f2fde38b146106dd578063fde28bb1146106f9576101f0565b8063c63d75b6146105bd578063c6e6f592146105ed578063ce96cb771461061d578063d905777e1461064d576101f0565b8063a9059cbb116100de578063a9059cbb146104fd578063b3d7f6b91461052d578063b460af941461055d578063ba0876521461058d576101f0565b80638da5cb5b1461046157806394bf804d1461047f57806395d89b41146104af578063a457c2d7146104cd576101f0565b806338d52e0f116101875780636023e966116101565780636023e966146103db5780636e553f65146103f757806370a0823114610427578063715018a614610457576101f0565b806338d52e0f1461032d578063395093511461034b578063402d267d1461037b5780634cdad506146103ab576101f0565b80630a28a477116101c35780630a28a4771461029157806318160ddd146102c157806323b872dd146102df578063313ce5671461030f576101f0565b806301e1d114146101f557806306fdde031461021357806307a2d13a14610231578063095ea7b314610261575b600080fd5b6101fd610715565b60405161020a919061247b565b60405180910390f35b61021b6107b6565b6040516102289190612526565b60405180910390f35b61024b60048036038101906102469190612588565b610848565b604051610258919061247b565b60405180910390f35b61027b60048036038101906102769190612613565b61085c565b604051610288919061266e565b60405180910390f35b6102ab60048036038101906102a69190612588565b61087f565b6040516102b8919061247b565b60405180910390f35b6102c9610893565b6040516102d6919061247b565b60405180910390f35b6102f960048036038101906102f49190612689565b61089d565b604051610306919061266e565b60405180910390f35b6103176108cc565b60405161032491906126f8565b60405180910390f35b6103356108d5565b6040516103429190612722565b60405180910390f35b61036560048036038101906103609190612613565b6108fd565b604051610372919061266e565b60405180910390f35b6103956004803603810190610390919061273d565b610934565b6040516103a2919061247b565b60405180910390f35b6103c560048036038101906103c09190612588565b610972565b6040516103d2919061247b565b60405180910390f35b6103f560048036038101906103f091906128b2565b610986565b005b610411600480360381019061040c9190612935565b610ae0565b60405161041e919061247b565b60405180910390f35b610441600480360381019061043c919061273d565b610b57565b60405161044e919061247b565b60405180910390f35b61045f610b9f565b005b610469610bb3565b6040516104769190612722565b60405180910390f35b61049960048036038101906104949190612935565b610bdd565b6040516104a6919061247b565b60405180910390f35b6104b7610c54565b6040516104c49190612526565b60405180910390f35b6104e760048036038101906104e29190612613565b610ce6565b6040516104f4919061266e565b60405180910390f35b61051760048036038101906105129190612613565b610d5d565b604051610524919061266e565b60405180910390f35b61054760048036038101906105429190612588565b610d80565b604051610554919061247b565b60405180910390f35b61057760048036038101906105729190612975565b610d94565b604051610584919061247b565b60405180910390f35b6105a760048036038101906105a29190612975565b610e0d565b6040516105b4919061247b565b60405180910390f35b6105d760048036038101906105d2919061273d565b610e86565b6040516105e4919061247b565b60405180910390f35b61060760048036038101906106029190612588565b610eb0565b604051610614919061247b565b60405180910390f35b6106376004803603810190610632919061273d565b610ec4565b604051610644919061247b565b60405180910390f35b6106676004803603810190610662919061273d565b610ee0565b604051610674919061247b565b60405180910390f35b610697600480360381019061069291906129c8565b610ef2565b6040516106a4919061247b565b60405180910390f35b6106c760048036038101906106c29190612588565b610f79565b6040516106d4919061247b565b60405180910390f35b6106f760048036038101906106f2919061273d565b610f8d565b005b610713600480360381019061070e9190612a08565b611010565b005b60007f000000000000000000000000000000000000000000000000000000000000000073ffffffffffffffffffffffffffffffffffffffff166370a08231306040518263ffffffff1660e01b81526004016107709190612722565b602060405180830381865afa15801561078d573d6000803e3d6000fd5b505050506040513d601f19601f820116820180604052508101906107b19190612a84565b905090565b6060600380546107c590612ae0565b80601f01602080910402602001604051908101604052809291908181526020018280546107f190612ae0565b801561083e5780601f106108135761010080835404028352916020019161083e565b820191906000526020600020905b81548152906001019060200180831161082157829003601f168201915b5050505050905090565b6000610855826000611250565b9050919050565b600080610867611356565b905061087481858561135e565b600191505092915050565b600061088c826001611527565b9050919050565b6000600254905090565b6000806108a8611356565b90506108b5858285611638565b6108c08585856116c4565b60019150509392505050565b60006012905090565b60007f0000000000000000000000000000000000000000000000000000000000000000905090565b600080610908611356565b905061092981858561091a8589610ef2565b6109249190612b40565b61135e565b600191505092915050565b600061093e611943565b61094957600061096b565b7fffffffffffffffffffffffffffffffffffffffffffffffffffffffffffffffff5b9050919050565b600061097f826000611250565b9050919050565b61098e611966565b836000815181106109a2576109a1612b74565b5b602002602001015173ffffffffffffffffffffffffffffffffffffffff1663095ea7b373d9e1ce17f2641f24ae83637ab66a2cca9c378b9f856040518363ffffffff1660e01b81526004016109f8929190612ba3565b6020604051808303816000875af1158015610a17573d6000803e3d6000fd5b505050506040513d601f19601f82011682018060405250810190610a3b9190612bf8565b5073d9e1ce17f2641f24ae83637ab66a2cca9c378b9f73ffffffffffffffffffffffffffffffffffffffff166338ed173984848785426040518663ffffffff1660e01b8152600401610a91959493929190612ce3565b6000604051808303816000875af1158015610ab0573d6000803e3d6000fd5b505050506040513d6000823e3d601f19601f82011682018060405250810190610ad99190612e00565b5050505050565b6000610aeb82610934565b831115610b2d576040517f08c379a0000000000000000000000000000000000000000000000000000000008152600401610b2490612e95565b60405180910390fd5b6000610b3884610f79565b9050610b4d610b45611356565b8486846119e4565b8091505092915050565b60008060008373ffffffffffffffffffffffffffffffffffffffff1673ffffffffffffffffffffffffffffffffffffffff168152602001908152602001600020549050919050565b610ba7611966565b610bb16000611a87565b565b6000600560009054906101000a900473ffffffffffffffffffffffffffffffffffffffff16905090565b6000610be882610e86565b831115610c2a576040517f08c379a0000000000000000000000000000000000000000000000000000000008152600401610c2190612f01565b60405180910390fd5b6000610c3584610d80565b9050610c4a610c42611356565b8483876119e4565b8091505092915050565b606060048054610c6390612ae0565b80601f0160208091040260200160405190810160405280929190818152602001828054610c8f90612ae0565b8015610cdc5780601f10610cb157610100808354040283529160200191610cdc565b820191906000526020600020905b815481529060010190602001808311610cbf57829003601f168201915b5050505050905090565b600080610cf1611356565b90506000610cff8286610ef2565b905083811015610d44576040517f08c379a0000000000000000000000000000000000000000000000000000000008152600401610d3b90612f93565b60405180910390fd5b610d51828686840361135e565b60019250505092915050565b600080610d68611356565b9050610d758185856116c4565b600191505092915050565b6000610d8d826001611250565b9050919050565b6000610d9f82610ec4565b841115610de1576040517f08c379a0000000000000000000000000000000000000000000000000000000008152600401610dd890612fff565b60405180910390fd5b6000610dec8561087f565b9050610e02610df9611356565b85858885611b4d565b809150509392505050565b6000610e1882610ee0565b841115610e5a576040517f08c379a0000000000000000000000000000000000000000000000000000000008152600401610e519061306b565b60405180910390fd5b6000610e6585610972565b9050610e7b610e72611356565b85858489611b4d565b809150509392505050565b60007fffffffffffffffffffffffffffffffffffffffffffffffffffffffffffffffff9050919050565b6000610ebd826000611527565b9050919050565b6000610ed9610ed283610b57565b6000611250565b9050919050565b6000610eeb82610b57565b9050919050565b6000600160008473ffffffffffffffffffffffffffffffffffffffff1673ffffffffffffffffffffffffffffffffffffffff16815260200190815260200160002060008373ffffffffffffffffffffffffffffffffffffffff1673ffffffffffffffffffffffffffffffffffffffff16815260200190815260200160002054905092915050565b6000610f86826000611527565b9050919050565b610f95611966565b600073ffffffffffffffffffffffffffffffffffffffff168173ffffffffffffffffffffffffffffffffffffffff1603611004576040517f08c379a0000000000000000000000000000000000000000000000000000000008152600401610ffb906130fd565b60405180910390fd5b61100d81611a87565b50565b611018611966565b6000600267ffffffffffffffff8111156110355761103461276f565b5b6040519080825280602002602001820160405280156110635781602001602082028036833780820191505090505b509050848160008151811061107b5761107a612b74565b5b602002602001019073ffffffffffffffffffffffffffffffffffffffff16908173ffffffffffffffffffffffffffffffffffffffff168152505073c02aaa39b223fe8d0a0e5c4f27ead9083c756cc2816001815181106110de576110dd612b74565b5b602002602001019073ffffffffffffffffffffffffffffffffffffffff16908173ffffffffffffffffffffffffffffffffffffffff16815250508473ffffffffffffffffffffffffffffffffffffffff1663095ea7b373d9e1ce17f2641f24ae83637ab66a2cca9c378b9f866040518363ffffffff1660e01b8152600401611167929190612ba3565b6020604051808303816000875af1158015611186573d6000803e3d6000fd5b505050506040513d601f19601f820116820180604052508101906111aa9190612bf8565b5073d9e1ce17f2641f24ae83637ab66a2cca9c378b9f73ffffffffffffffffffffffffffffffffffffffff166318cbafe585858433876040518663ffffffff1660e01b8152600401611200959493929190612ce3565b6000604051808303816000875af115801561121f573d6000803e3d6000fd5b505050506040513d6000823e3d601f19601f820116820180604052508101906112489190612e00565b505050505050565b60008061125b610893565b90506000811461128857611283611270610715565b828587611c46909392919063ffffffff16565b61134d565b61134c7f000000000000000000000000000000000000000000000000000000000000000073ffffffffffffffffffffffffffffffffffffffff1663313ce5676040518163ffffffff1660e01b8152600401602060405180830381865afa1580156112f6573d6000803e3d6000fd5b505050506040513d601f19601f8201168201806040525081019061131a9190613149565b600a61132691906132a9565b61132e6108cc565b600a61133a91906132a9565b8587611c46909392919063ffffffff16565b5b91505092915050565b600033905090565b600073ffffffffffffffffffffffffffffffffffffffff168373ffffffffffffffffffffffffffffffffffffffff16036113cd576040517f08c379a00000000000000000000000000000000000000000000000000000000081526004016113c490613366565b60405180910390fd5b600073ffffffffffffffffffffffffffffffffffffffff168273ffffffffffffffffffffffffffffffffffffffff160361143c576040517f08c379a0000000000000000000000000000000000000000000000000000000008152600401611433906133f8565b60405180910390fd5b80600160008573ffffffffffffffffffffffffffffffffffffffff1673ffffffffffffffffffffffffffffffffffffffff16815260200190815260200160002060008473ffffffffffffffffffffffffffffffffffffffff1673ffffffffffffffffffffffffffffffffffffffff168152602001908152602001600020819055508173ffffffffffffffffffffffffffffffffffffffff168373ffffffffffffffffffffffffffffffffffffffff167f8c5be1e5ebec7d5bd14f71427d1e84f3dd0314c0f7b2291e5b200ac8c7c3b9258360405161151a919061247b565b60405180910390a3505050565b600080611532610893565b905060008414806115435750600081145b61156a5761156581611553610715565b8587611c46909392919063ffffffff16565b61162f565b61162e6115756108cc565b600a61158191906132a9565b7f000000000000000000000000000000000000000000000000000000000000000073ffffffffffffffffffffffffffffffffffffffff1663313ce5676040518163ffffffff1660e01b8152600401602060405180830381865afa1580156115ec573d6000803e3d6000fd5b505050506040513d601f19601f820116820180604052508101906116109190613149565b600a61161c91906132a9565b8587611c46909392919063ffffffff16565b5b91505092915050565b60006116448484610ef2565b90507fffffffffffffffffffffffffffffffffffffffffffffffffffffffffffffffff81146116be57818110156116b0576040517f08c379a00000000000000000000000000000000000000000000000000000000081526004016116a790613464565b60405180910390fd5b6116bd848484840361135e565b5b50505050565b600073ffffffffffffffffffffffffffffffffffffffff168373ffffffffffffffffffffffffffffffffffffffff1603611733576040517f08c379a000000000000000000000000000000000000000000000000000000000815260040161172a906134f6565b60405180910390fd5b600073ffffffffffffffffffffffffffffffffffffffff168273ffffffffffffffffffffffffffffffffffffffff16036117a2576040517f08c379a000000000000000000000000000000000000000000000000000000000815260040161179990613588565b60405180910390fd5b6117ad838383611cbc565b60008060008573ffffffffffffffffffffffffffffffffffffffff1673ffffffffffffffffffffffffffffffffffffffff16815260200190815260200160002054905081811015611833576040517f08c379a000000000000000000000000000000000000000000000000000000000815260040161182a9061361a565b60405180910390fd5b8181036000808673ffffffffffffffffffffffffffffffffffffffff1673ffffffffffffffffffffffffffffffffffffffff16815260200190815260200160002081905550816000808573ffffffffffffffffffffffffffffffffffffffff1673ffffffffffffffffffffffffffffffffffffffff16815260200190815260200160002060008282546118c69190612b40565b925050819055508273ffffffffffffffffffffffffffffffffffffffff168473ffffffffffffffffffffffffffffffffffffffff167fddf252ad1be2c89b69c2b068fc378daa952ba7f163c4a11628f55a4df523b3ef8460405161192a919061247b565b60405180910390a361193d848484611cc1565b50505050565b60008061194e610715565b11806119615750600061195f610893565b145b905090565b61196e611356565b73ffffffffffffffffffffffffffffffffffffffff1661198c610bb3565b73ffffffffffffffffffffffffffffffffffffffff16146119e2576040517f08c379a00000000000000000000000000000000000000000000000000000000081526004016119d990613686565b60405180910390fd5b565b611a107f0000000000000000000000000000000000000000000000000000000000000000853085611cc6565b611a1a8382611d4f565b8273ffffffffffffffffffffffffffffffffffffffff168473ffffffffffffffffffffffffffffffffffffffff167fdcbc1c05240f31ff3ad067ef1ee35ce4997762752e3a095284754544f4c709d78484604051611a799291906136a6565b60405180910390a350505050565b6000600560009054906101000a900473ffffffffffffffffffffffffffffffffffffffff16905081600560006101000a81548173ffffffffffffffffffffffffffffffffffffffff021916908373ffffffffffffffffffffffffffffffffffffffff1602179055508173ffffffffffffffffffffffffffffffffffffffff168173ffffffffffffffffffffffffffffffffffffffff167f8be0079c531659141344cd1fd0a4f28419497f9722a3daafe3b4186f6b6457e060405160405180910390a35050565b8273ffffffffffffffffffffffffffffffffffffffff168573ffffffffffffffffffffffffffffffffffffffff1614611b8c57611b8b838683611638565b5b611b968382611eae565b611bc17f00000000000000000000000000000000000000000000000000000000000000008584612084565b8273ffffffffffffffffffffffffffffffffffffffff168473ffffffffffffffffffffffffffffffffffffffff168673ffffffffffffffffffffffffffffffffffffffff167ffbde797d201c681b91056529119e0b02407c7bb96a4a2c75c01fc9667232c8db8585604051611c379291906136a6565b60405180910390a45050505050565b600080611c5486868661210a565b905060016002811115611c6a57611c696136cf565b5b836002811115611c7d57611c7c6136cf565b5b148015611c9b575060008480611c9657611c956136fe565b5b868809115b15611cb057600181611cad9190612b40565b90505b80915050949350505050565b505050565b505050565b611d49846323b872dd60e01b858585604051602401611ce79392919061372d565b604051602081830303815290604052907bffffffffffffffffffffffffffffffffffffffffffffffffffffffff19166020820180517bffffffffffffffffffffffffffffffffffffffffffffffffffffffff83818316178352505050506121e5565b50505050565b600073ffffffffffffffffffffffffffffffffffffffff168273ffffffffffffffffffffffffffffffffffffffff1603611dbe576040517f08c379a0000000000000000000000000000000000000000000000000000000008152600401611db5906137b0565b60405180910390fd5b611dca60008383611cbc565b8060026000828254611ddc9190612b40565b92505081905550806000808473ffffffffffffffffffffffffffffffffffffffff1673ffffffffffffffffffffffffffffffffffffffff1681526020019081526020016000206000828254611e319190612b40565b925050819055508173ffffffffffffffffffffffffffffffffffffffff16600073ffffffffffffffffffffffffffffffffffffffff167fddf252ad1be2c89b69c2b068fc378daa952ba7f163c4a11628f55a4df523b3ef83604051611e96919061247b565b60405180910390a3611eaa60008383611cc1565b5050565b600073ffffffffffffffffffffffffffffffffffffffff168273ffffffffffffffffffffffffffffffffffffffff1603611f1d576040517f08c379a0000000000000000000000000000000000000000000000000000000008152600401611f1490613842565b60405180910390fd5b611f2982600083611cbc565b60008060008473ffffffffffffffffffffffffffffffffffffffff1673ffffffffffffffffffffffffffffffffffffffff16815260200190815260200160002054905081811015611faf576040517f08c379a0000000000000000000000000000000000000000000000000000000008152600401611fa6906138d4565b60405180910390fd5b8181036000808573ffffffffffffffffffffffffffffffffffffffff1673ffffffffffffffffffffffffffffffffffffffff16815260200190815260200160002081905550816002600082825461200691906138f4565b92505081905550600073ffffffffffffffffffffffffffffffffffffffff168373ffffffffffffffffffffffffffffffffffffffff167fddf252ad1be2c89b69c2b068fc378daa952ba7f163c4a11628f55a4df523b3ef8460405161206b919061247b565b60405180910390a361207f83600084611cc1565b505050565b6121058363a9059cbb60e01b84846040516024016120a3929190612ba3565b604051602081830303815290604052907bffffffffffffffffffffffffffffffffffffffffffffffffffffffff19166020820180517bffffffffffffffffffffffffffffffffffffffffffffffffffffffff83818316178352505050506121e5565b505050565b60008060008019858709858702925082811083820303915050600081036121455783828161213b5761213a6136fe565b5b04925050506121de565b80841161215157600080fd5b60008486880990508281118203915080830392506000600186190186169050808604955080840493506001818260000304019050808302841793506000600287600302189050808702600203810290508087026002038102905080870260020381029050808702600203810290508087026002038102905080870260020381029050808502955050505050505b9392505050565b6000612247826040518060400160405280602081526020017f5361666545524332303a206c6f772d6c6576656c2063616c6c206661696c65648152508573ffffffffffffffffffffffffffffffffffffffff166122ac9092919063ffffffff16565b90506000815111156122a757808060200190518101906122679190612bf8565b6122a6576040517f08c379a000000000000000000000000000000000000000000000000000000000815260040161229d9061399a565b60405180910390fd5b5b505050565b60606122bb84846000856122c4565b90509392505050565b606082471015612309576040517f08c379a000000000000000000000000000000000000000000000000000000000815260040161230090613a2c565b60405180910390fd5b612312856123d8565b612351576040517f08c379a000000000000000000000000000000000000000000000000000000000815260040161234890613a98565b60405180910390fd5b6000808673ffffffffffffffffffffffffffffffffffffffff16858760405161237a9190613aff565b60006040518083038185875af1925050503d80600081146123b7576040519150601f19603f3d011682016040523d82523d6000602084013e6123bc565b606091505b50915091506123cc8282866123fb565b92505050949350505050565b6000808273ffffffffffffffffffffffffffffffffffffffff163b119050919050565b6060831561240b5782905061245b565b60008351111561241e5782518084602001fd5b816040517f08c379a00000000000000000000000000000000000000000000000000000000081526004016124529190612526565b60405180910390fd5b9392505050565b6000819050919050565b61247581612462565b82525050565b6000602082019050612490600083018461246c565b92915050565b600081519050919050565b600082825260208201905092915050565b60005b838110156124d05780820151818401526020810190506124b5565b60008484015250505050565b6000601f19601f8301169050919050565b60006124f882612496565b61250281856124a1565b93506125128185602086016124b2565b61251b816124dc565b840191505092915050565b6000602082019050818103600083015261254081846124ed565b905092915050565b6000604051905090565b600080fd5b600080fd5b61256581612462565b811461257057600080fd5b50565b6000813590506125828161255c565b92915050565b60006020828403121561259e5761259d612552565b5b60006125ac84828501612573565b91505092915050565b600073ffffffffffffffffffffffffffffffffffffffff82169050919050565b60006125e0826125b5565b9050919050565b6125f0816125d5565b81146125fb57600080fd5b50565b60008135905061260d816125e7565b92915050565b6000806040838503121561262a57612629612552565b5b6000612638858286016125fe565b925050602061264985828601612573565b9150509250929050565b60008115159050919050565b61266881612653565b82525050565b6000602082019050612683600083018461265f565b92915050565b6000806000606084860312156126a2576126a1612552565b5b60006126b0868287016125fe565b93505060206126c1868287016125fe565b92505060406126d286828701612573565b9150509250925092565b600060ff82169050919050565b6126f2816126dc565b82525050565b600060208201905061270d60008301846126e9565b92915050565b61271c816125d5565b82525050565b60006020820190506127376000830184612713565b92915050565b60006020828403121561275357612752612552565b5b6000612761848285016125fe565b91505092915050565b600080fd5b7f4e487b7100000000000000000000000000000000000000000000000000000000600052604160045260246000fd5b6127a7826124dc565b810181811067ffffffffffffffff821117156127c6576127c561276f565b5b80604052505050565b60006127d9612548565b90506127e5828261279e565b919050565b600067ffffffffffffffff8211156128055761280461276f565b5b602082029050602081019050919050565b600080fd5b600061282e612829846127ea565b6127cf565b9050808382526020820190506020840283018581111561285157612850612816565b5b835b8181101561287a578061286688826125fe565b845260208401935050602081019050612853565b5050509392505050565b600082601f8301126128995761289861276a565b5b81356128a984826020860161281b565b91505092915050565b600080600080608085870312156128cc576128cb612552565b5b600085013567ffffffffffffffff8111156128ea576128e9612557565b5b6128f687828801612884565b945050602061290787828801612573565b935050604061291887828801612573565b9250506060612929878288016125fe565b91505092959194509250565b6000806040838503121561294c5761294b612552565b5b600061295a85828601612573565b925050602061296b858286016125fe565b9150509250929050565b60008060006060848603121561298e5761298d612552565b5b600061299c86828701612573565b93505060206129ad868287016125fe565b92505060406129be868287016125fe565b9150509250925092565b600080604083850312156129df576129de612552565b5b60006129ed858286016125fe565b92505060206129fe858286016125fe565b9150509250929050565b60008060008060808587031215612a2257612a21612552565b5b6000612a30878288016125fe565b9450506020612a4187828801612573565b9350506040612a5287828801612573565b9250506060612a6387828801612573565b91505092959194509250565b600081519050612a7e8161255c565b92915050565b600060208284031215612a9a57612a99612552565b5b6000612aa884828501612a6f565b91505092915050565b7f4e487b7100000000000000000000000000000000000000000000000000000000600052602260045260246000fd5b60006002820490506001821680612af857607f821691505b602082108103612b0b57612b0a612ab1565b5b50919050565b7f4e487b7100000000000000000000000000000000000000000000000000000000600052601160045260246000fd5b6000612b4b82612462565b9150612b5683612462565b9250828201905080821115612b6e57612b6d612b11565b5b92915050565b7f4e487b7100000000000000000000000000000000000000000000000000000000600052603260045260246000fd5b6000604082019050612bb86000830185612713565b612bc5602083018461246c565b9392505050565b612bd581612653565b8114612be057600080fd5b50565b600081519050612bf281612bcc565b92915050565b600060208284031215612c0e57612c0d612552565b5b6000612c1c84828501612be3565b91505092915050565b600081519050919050565b600082825260208201905092915050565b6000819050602082019050919050565b612c5a816125d5565b82525050565b6000612c6c8383612c51565b60208301905092915050565b6000602082019050919050565b6000612c9082612c25565b612c9a8185612c30565b9350612ca583612c41565b8060005b83811015612cd6578151612cbd8882612c60565b9750612cc883612c78565b925050600181019050612ca9565b5085935050505092915050565b600060a082019050612cf8600083018861246c565b612d05602083018761246c565b8181036040830152612d178186612c85565b9050612d266060830185612713565b612d33608083018461246c565b9695505050505050565b600067ffffffffffffffff821115612d5857612d5761276f565b5b602082029050602081019050919050565b6000612d7c612d7784612d3d565b6127cf565b90508083825260208201905060208402830185811115612d9f57612d9e612816565b5b835b81811015612dc85780612db48882612a6f565b845260208401935050602081019050612da1565b5050509392505050565b600082601f830112612de757612de661276a565b5b8151612df7848260208601612d69565b91505092915050565b600060208284031215612e1657612e15612552565b5b600082015167ffffffffffffffff811115612e3457612e33612557565b5b612e4084828501612dd2565b91505092915050565b7f455243343632363a206465706f736974206d6f7265207468616e206d61780000600082015250565b6000612e7f601e836124a1565b9150612e8a82612e49565b602082019050919050565b60006020820190508181036000830152612eae81612e72565b9050919050565b7f455243343632363a206d696e74206d6f7265207468616e206d61780000000000600082015250565b6000612eeb601b836124a1565b9150612ef682612eb5565b602082019050919050565b60006020820190508181036000830152612f1a81612ede565b9050919050565b7f45524332303a2064656372656173656420616c6c6f77616e63652062656c6f7760008201527f207a65726f000000000000000000000000000000000000000000000000000000602082015250565b6000612f7d6025836124a1565b9150612f8882612f21565b604082019050919050565b60006020820190508181036000830152612fac81612f70565b9050919050565b7f455243343632363a207769746864726177206d6f7265207468616e206d617800600082015250565b6000612fe9601f836124a1565b9150612ff482612fb3565b602082019050919050565b6000602082019050818103600083015261301881612fdc565b9050919050565b7f455243343632363a2072656465656d206d6f7265207468616e206d6178000000600082015250565b6000613055601d836124a1565b91506130608261301f565b602082019050919050565b6000602082019050818103600083015261308481613048565b9050919050565b7f4f776e61626c653a206e6577206f776e657220697320746865207a65726f206160008201527f6464726573730000000000000000000000000000000000000000000000000000602082015250565b60006130e76026836124a1565b91506130f28261308b565b604082019050919050565b60006020820190508181036000830152613116816130da565b9050919050565b613126816126dc565b811461313157600080fd5b50565b6000815190506131438161311d565b92915050565b60006020828403121561315f5761315e612552565b5b600061316d84828501613134565b91505092915050565b60008160011c9050919050565b6000808291508390505b60018511156131cd578086048111156131a9576131a8612b11565b5b60018516156131b85780820291505b80810290506131c685613176565b945061318d565b94509492505050565b6000826131e657600190506132a2565b816131f457600090506132a2565b816001811461320a576002811461321457613243565b60019150506132a2565b60ff84111561322657613225612b11565b5b8360020a91508482111561323d5761323c612b11565b5b506132a2565b5060208310610133831016604e8410600b84101617156132785782820a90508381111561327357613272612b11565b5b6132a2565b6132858484846001613183565b9250905081840481111561329c5761329b612b11565b5b81810290505b9392505050565b60006132b482612462565b91506132bf836126dc565b92506132ec7fffffffffffffffffffffffffffffffffffffffffffffffffffffffffffffffff84846131d6565b905092915050565b7f45524332303a20617070726f76652066726f6d20746865207a65726f2061646460008201527f7265737300000000000000000000000000000000000000000000000000000000602082015250565b60006133506024836124a1565b915061335b826132f4565b604082019050919050565b6000602082019050818103600083015261337f81613343565b9050919050565b7f45524332303a20617070726f766520746f20746865207a65726f20616464726560008201527f7373000000000000000000000000000000000000000000000000000000000000602082015250565b60006133e26022836124a1565b91506133ed82613386565b604082019050919050565b60006020820190508181036000830152613411816133d5565b9050919050565b7f45524332303a20696e73756666696369656e7420616c6c6f77616e6365000000600082015250565b600061344e601d836124a1565b915061345982613418565b602082019050919050565b6000602082019050818103600083015261347d81613441565b9050919050565b7f45524332303a207472616e736665722066726f6d20746865207a65726f20616460008201527f6472657373000000000000000000000000000000000000000000000000000000602082015250565b60006134e06025836124a1565b91506134eb82613484565b604082019050919050565b6000602082019050818103600083015261350f816134d3565b9050919050565b7f45524332303a207472616e7366657220746f20746865207a65726f206164647260008201527f6573730000000000000000000000000000000000000000000000000000000000602082015250565b60006135726023836124a1565b915061357d82613516565b604082019050919050565b600060208201905081810360008301526135a181613565565b9050919050565b7f45524332303a207472616e7366657220616d6f756e742065786365656473206260008201527f616c616e63650000000000000000000000000000000000000000000000000000602082015250565b60006136046026836124a1565b915061360f826135a8565b604082019050919050565b60006020820190508181036000830152613633816135f7565b9050919050565b7f4f776e61626c653a2063616c6c6572206973206e6f7420746865206f776e6572600082015250565b60006136706020836124a1565b915061367b8261363a565b602082019050919050565b6000602082019050818103600083015261369f81613663565b9050919050565b60006040820190506136bb600083018561246c565b6136c8602083018461246c565b9392505050565b7f4e487b7100000000000000000000000000000000000000000000000000000000600052602160045260246000fd5b7f4e487b7100000000000000000000000000000000000000000000000000000000600052601260045260246000fd5b60006060820190506137426000830186612713565b61374f6020830185612713565b61375c604083018461246c565b949350505050565b7f45524332303a206d696e7420746f20746865207a65726f206164647265737300600082015250565b600061379a601f836124a1565b91506137a582613764565b602082019050919050565b600060208201905081810360008301526137c98161378d565b9050919050565b7f45524332303a206275726e2066726f6d20746865207a65726f2061646472657360008201527f7300000000000000000000000000000000000000000000000000000000000000602082015250565b600061382c6021836124a1565b9150613837826137d0565b604082019050919050565b6000602082019050818103600083015261385b8161381f565b9050919050565b7f45524332303a206275726e20616d6f756e7420657863656564732062616c616e60008201527f6365000000000000000000000000000000000000000000000000000000000000602082015250565b60006138be6022836124a1565b91506138c982613862565b604082019050919050565b600060208201905081810360008301526138ed816138b1565b9050919050565b60006138ff82612462565b915061390a83612462565b925082820390508181111561392257613921612b11565b5b92915050565b7f5361666545524332303a204552433230206f7065726174696f6e20646964206e60008201527f6f74207375636365656400000000000000000000000000000000000000000000602082015250565b6000613984602a836124a1565b915061398f82613928565b604082019050919050565b600060208201905081810360008301526139b381613977565b9050919050565b7f416464726573733a20696e73756666696369656e742062616c616e636520666f60008201527f722063616c6c0000000000000000000000000000000000000000000000000000602082015250565b6000613a166026836124a1565b9150613a21826139ba565b604082019050919050565b60006020820190508181036000830152613a4581613a09565b9050919050565b7f416464726573733a2063616c6c20746f206e6f6e2d636f6e7472616374000000600082015250565b6000613a82601d836124a1565b9150613a8d82613a4c565b602082019050919050565b60006020820190508181036000830152613ab181613a75565b9050919050565b600081519050919050565b600081905092915050565b6000613ad982613ab8565b613ae38185613ac3565b9350613af38185602086016124b2565b80840191505092915050565b6000613b0b8284613ace565b91508190509291505056fea2646970667358221220f89e2648a688bfa2c03dd2688dbc32c78132a73781a2262bbe9cb635975c543364736f6c63430008100033",
  "linkReferences": {},
  "deployedLinkReferences": {}
}